:020000040800F2
:10000000B80B0020C5000008E5190008CD13000852
:1000100000000000000000000000000000000000E0
:10002000000000000000000000000000ED1E0008BD
:100030000000000000000000591A0008ED1F000831
:10004000F5000008F5000008F5000008F5000008BC
:10005000F5000008F5000008F5000008F5000008AC
:10006000000000006D0C0008F5000008F500000815
:10007000F5000008E9200008F5000008A1210008AB
:10008000F521000800000000000000006D200008BD
:1000900000000000F5000008F5000008F500000869
:1000A00000000000F500000800000000F500000856
:1000B0000348854600F0A6F900480047952A000845
:1000C000B80B00200C4880F308880C480168090E22
:1000D0000B4A914205D10B480B4901600B480C4972
:1000E00001600C4880470C480047FEE7FEE7FEE74A
:1000F000FEE7FEE7FEE70000B80B0020040000006A
:100100001F00000018100240010000000000014024
:1001100000000000F11F0008B100000830B50B46D8
:10012000014600202022012409E00D46D5409D42D1
:1001300005D31D469540491B254695404019154657
:10014000521E002DF1DC30BDF8B502464A40D40FF6
:1001500042004B0052085B089A4202D2024608460F
:1001600011464A0023D0C30D4A00DDB2120EAD1A6B
:10017000202D35DA49020126490AF6058A19002C94
:1001800000D0524220214F1B1146B9402A4110187D
:10019000C20D9A4221D0002C17D0012D08DCDA05BF
:1001A000801AD20F8019D207DBB200F0F1F8F8BD47
:1001B000DA05801A012340001B06C01880185A4235
:1001C0008018CA0F1043490007E04908C2071143CD
:1001D000DA05801A80194008801800F0D1F8F8BDBF
:1001E00061000122511A001BF7E70122D20751409A
:1001F000AAE70122D2075040A6E7024670B54A405E
:10020000D30FDB0740002DD04A002AD0010E140E78
:10021000000212020919400A520A8418E501044634
:100220005443000A120A2E045043A4194219200C08
:10023000C543AA18120C0125AD03521C5219120411
:100240007F39240400D0521C104301D44000491EC1
:10025000C2B20C06C0092018401C4008802A02D0F7
:1002600003E0002070BD40084000002900DA0020B3
:10027000184370BD70B502464A40D50F40004A0091
:10028000ED0740085208002814D0002A12D0C40DEF
:10029000D30D41020120C0055202490A520AE41A54
:1002A000091812187D34914201D3641C00E0490002
:1002B000002C01DA002070BD0023914201D3891A7D
:1002C0000343400849000028F7D100290AD0914291
:1002D00002D10121C90705E0914201D2012101E0CB
:1002E0000121C943E005C018401900F049F870BD6C
:1002F00010B500229623114600F04AF810BDC20F37
:10030000410040020123400ADB05D207090EC01854
:100310007F2901DA00207047962903DC9623591AB9
:10032000C84001E096398840002AF4D04042704726
:10033000410040020122400AD205090E80187F299F
:1003400001DA00207047962903DC9622511AC84032
:1003500070479639884070470122D207002800DB99
:10036000101A002900DB511A814270470122D2077E
:10037000002800DB101A002900DB511A8842704760
:10038000002904DA401C490001D1400840007047B0
:1003900070B40024050C05D11024000402D10029FA
:1003A00021D01124050E01D100020834050F01D11E
:1003B0000001241D850F01D18000A41C002801DB51
:1003C0004000641C002908D020252E1B0D46F54056
:1003D000A14000D001212943084301061B1B000A4C
:1003E000DB1D02D5002070BC7047DB051818801893
:1003F0000029F8DA401C4900F5D170BC40084000E3
:1004000070470000064C0125064E05E0E36807CC66
:100410002B430C3C98471034B442F7D3FFF74CFE03
:10042000D02B0008F02B000810B50B460021846A81
:100430001C43846200BF0C4614432146416110BD39
:10044000002904D0826801231A43826003E0826895
:1004500002231A4382607047002904D0C268012336
:100460001A43C26003E0C26852085200C26070477B
:10047000C26802239A43C260C2680A43C2607047DE
:1004800010B504460548844207D10121401501F00A
:1004900041FB0021601501F03DFB10BD002401402F
:1004A00030B501460020002200238C680125ED07AD
:1004B0002C438C6000BF8C68E30FDB07521C0F24B9
:1004C0002403A24201D0002BF5D18C68E40FE4078D
:1004D000002C01D1086C00E0002030BD30B5024690
:1004E00000200023012424060C40002C05D0946831
:1004F00001252D06AC43234600E013681C460C4042
:10050000002C01D0012000E0002030BD10B50022F9
:10051000C268084B1A400C7964030B6823438C684B
:100520002343CC6823430C6923434C6923431A4378
:10053000C26010BD03D2FFFF002905D0C2680123AD
:100540001B031A43C26004E0C26801231B039A43E1
:10055000C2607047816804221143816070470021A6
:10056000016001718160C1600161416170470000FB
:10057000F8B50025CF48007800287DD0CE48007817
:100580000028FAD000BF00241CE02846691CCDB228
:100590004000CA49085EA100C94A50502846691C5B
:1005A000CDB24000C549085EA100C64A5050284659
:1005B000691CCDB24000C149085EA100C24A50503A
:1005C000601CC4B2042CE0DBBD490968BC4A526817
:1005D0008918BB4A92688918B94AD268891888086C
:1005E000FFF786FEB9490860B6490968B54A5268FE
:1005F0008918B44A92688918B24AD268891888085A
:10060000FFF776FEB2490860AF490968AE4A526802
:100610008918AD4A92688918AB4AD2688918880847
:10062000FFF766FEAB490860A9480168A748006863
:10063000FFF78AFD0646A74801683046FFF784FDAC
:10064000A5490860A14801688920C005FFF7D5FDCC
:100650000746A14801683846FFF70CFE0646FFF73B
:100660004EFE9E4908609A4801688920C005FFF740
:10067000C4FD0746984800E01BE101683846FFF7D3
:10068000F9FD0646FFF73BFE954908609148016871
:100690008920C005FFF7B1FD07468F48016838463D
:1006A000FFF7E8FD0646FFF72AFE8E4908608E49EF
:1006B0000868FFF71DFE0646874801683046FFF7C9
:1006C0004BFE0FD288490868FFF712FE07468248A2
:1006D00001683846FFF78DFD0646FFF710FE834997
:1006E00008600EE080490868FFF702FE07467A4876
:1006F00001683846FFF779FD0646FFF700FE7B49A3
:1007000008607B48006875490968884207D27848C4
:10071000006872490968081A7649086006E074485A
:1007200000686E490968401A72490860724800689A
:100730006B490968884207D26F48006868490968B0
:10074000081A6E49086006E06B4800686449096849
:10075000401A6A4908606A48006862490968884224
:1007600007D2674800685F490968081A6549086048
:1007700006E0634800685B490968401A61490860FF
:100780005C4800685D49096840185E49096840187E
:100790005D49086055480068096840187D21C90016
:1007A000081A5A49086008460068002802DC002040
:1007B000086008E0554800687D21C900884202DBD6
:1007C0000846524908605148006851490978890033
:1007D000504A50504E4800788000114608584E4903
:1007E00000228A5E904207DD49480078800049492E
:1007F000085A00B2484908804548007880004549B9
:100800000858464900228A5E904207DA404800783C
:1008100080004049085A00B2404908803C480078AE
:10082000401C3B49087008460078052813DD00206D
:100830000870394A115E394A135EC81AC117890F08
:1008400009188910364A11600020334908807D203C
:10085000C0003249088033480068314909684018AF
:10086000314908602F48006864382D490968401AEA
:100870002E490860084600680A2801DA0A20086044
:100880002248006828490968884203DB012028497A
:10089000087008E01D48006824490968884202DCA5
:1008A000002023490870234801F089FD00B2224945
:1008B0000880F8BD00000020A4000020540700209C
:1008C0006C0700207C0700208C070020BC00002063
:1008D000C0000020C4000020C8000020E00000206C
:1008E000E4000020E80000209C000020D800002048
:1008F00084000020CC0000208C000020D0000020CC
:1009000094000020D4000020DC000020EC00002037
:10091000000100209C070020FC000020FE000020B9
:100920000401002070000020F8000020F4000020E6
:1009300024000020002000400C000020F8B5002515
:1009400000240120B34908700020B349087000BF9B
:10095000B14800780028FBD0B048007800287DD04E
:100960000020AE490870002500241CE02846691CC0
:10097000CDB24000AA49085EA100AA4A50502846BC
:10098000691CCDB24000A649085EA100A64A50509D
:100990002846691CCDB24000A149085EA100A34AC7
:1009A0005050601CC4B2042CE0DB9E4909689D4A8B
:1009B000526889189B4A926889189A4AD26889189D
:1009C0008808FFF795FC9A4909788900994A5050A0
:1009D00095490968944A52688918934A9268891817
:1009E000914AD26889188808FFF782FC90490978F3
:1009F0008900914A50508D4909688C4A526889187B
:100A00008A4A92688918894AD26889188808FFF743
:100A10006FFC874909788900884A5050844A1278C7
:100A20009200854B9958824A12789200814B9858CF
:100A3000FFF78AFB07467E48007880007F4A1158FE
:100A40003846FFF781FB0646FFF772FC78490978C4
:100A500089007B4A50507649097800E0CCE0890053
:100A60005058FFF745FC0746714800788000714AEE
:100A700011588920C005FFF7C0FB39460090FFF7E9
:100A8000F9FB0646FFF754FC6949097889006D4A6D
:100A90005050674909788900694A5058FFF728FC87
:100AA0000746634800788000634A11588920C005D2
:100AB000FFF7A3FB39460090FFF7DCFB0646FFF784
:100AC00037FC5B49097889005F4A505058490978DA
:100AD00089005B4A5058FFF70BFC074654480078E2
:100AE0008000564A11588920C005FFF786FB394619
:100AF0000090FFF7BFFB0646FFF71AFC4C49097848
:100B00008900524A50504A480078401C48490870B1
:100B100008460078022879DB0020087049484068C0
:100B200048490968884207D94648406845490968E4
:100B3000401A4749086006E0424800684149496850
:100B4000401A43490860404840683F490968884264
:100B500007D93D4840683C490968401A3D4908604A
:100B600006E03948006838494968401A3949086040
:100B70003648406835490968884207D93348406893
:100B800032490968401A3449086006E02F48006875
:100B90002E494968401A3049086029484068284968
:100BA0000968884207D92648406825490968401ADB
:100BB0002A49086006E02248006821494968401A2D
:100BC00026490860224800682249096840182249DD
:100BD00009684018224908602048006809684018E0
:100BE00040087D21C900081A1E49086008460068AF
:100BF000C82802DCC820086008E01A4800687D2187
:100C0000C900884202DB08461649086000201649E0
:100C10000870F8BD830000200F0000205400002061
:100C2000540700206C0700207C0700208C07002060
:100C30008200002028000020300000203800002022
:100C40009C000020840000208C00002094000020E4
:100C5000A8000020AC000020B0000020B40000205C
:100C6000B8000020700000207C00002010B5022099
:100C700000F04CF900285ED031480078032802D1FA
:100C800000202F4908702F4800882F49081A01B208
:100C90002E4802780078401C2C4B187050002C4ACB
:100CA0001152184600780C2813DB002019460870F2
:100CB00028480078002809D027480078002805D166
:100CC0000120254908702549087002E001202449C7
:100CD00008702448007801282DD11948007801288F
:100CE00011D10021204801F0A5FC0C211E4801F083
:100CF000A3FC00211C4801F0A1FC11480078401C15
:100D00000F49087017E00E480078022813D10C48EC
:100D10000078401C0A4908700021134801F08AFC41
:100D20000021114801F088FC0C210F4801F086FCDD
:100D300000200C490870022000F018F810BD0000D7
:100D40000200002020010020FF0F00000E00002004
:100D500054070020830000200F00002054000020D2
:100D60000000002003000020002C014001210907A1
:100D70000140002902D00349486001E0024948606F
:100D8000704700000004024000000240002904D027
:100D9000026801231A43026003E00268014B1A4013
:100DA00002607047FEFF00000168554A1140016073
:100DB0000021016041608160C1605249884208D1D0
:100DC0005049083949680F2211434E4A083A516088
:100DD00094E04C491431884208D14A49083949689D
:100DE000F0221143474A083A516087E045492831CB
:100DF000884209D14349083949680F221202114338
:100E0000404A083A516079E03E493C31884209D174
:100E10003C49083949680F2212031143394A083AFC
:100E200051606BE037495031884209D13549083962
:100E300049680F2212041143324A083A51605DE0BA
:100E400030496431884209D12E49083949680F2256
:100E5000120511432B4A083A51604FE02949783175
:100E6000884209D12749083949680F2212061143DF
:100E7000244A083A516041E02349884208D1224976
:100E8000083949680F2211431F4A083A516035E07A
:100E90001D491431884208D11B4908394968F0229C
:100EA0001143194A083A516028E01749283188420D
:100EB00009D11549083949680F2212021143124A13
:100EC000083A51601AE010493C31884209D10E4974
:100ED000083949680F22120311430B4A083A51603E
:100EE0000CE009495031884208D10749083949685E
:100EF0000F2212041143044A083A5160704700005F
:100F0000FEFF0000080002400804024001460020E5
:100F1000002201231B070B40002B02D0064B1A684E
:100F200001E0064B1A6813460B40002B01D001204C
:100F300000E0002070470000000402400000024072
:100F4000002A03D003680B43036002E003688B436D
:100F50000360704710B5002202680D4B1A400C6AFE
:100F60008B6823430C6923434C6923438C692343D7
:100F7000CC6923434C6A23438C6A23431A4302609F
:100F8000CB6843600B6883604B68C36010BD000092
:100F90000F80FFFF0021016041608160C16001613D
:100FA00041618161C16101624162816270470000FB
:100FB00001F088FD002400E0641C0A2CFCDB55E0F5
:100FC00016E00022012109030920C00600F0F8F90B
:100FD0002748006827490968401A7D21C9008842CE
:100FE00006D3002024490870244908602449087069
:100FF000214800780028E4D122480078012810DA3E
:1010000021480078012802D1FFF7B2FA05E01E4816
:101010000078002801D100F0DBF91C48007800F0CE
:1010200066FF1B480078002820DD01210903092004
:10103000C00600F0AEF905462A4601210903092041
:10104000C00600F0BDF90121C9020920C00600F068
:10105000A0F9002805D0FFF771FC01200A490870AB
:1010600004E000200849087000F04CFBA8E70000ED
:101070002000002018000020150000201C00002087
:101080001400002082000020A40000202400002082
:101090007C00002004E0411E08B2002800DC00E0D3
:1010A000F9E700BF704700000149C86070470000C1
:1010B0000020024030B5044604250B20000400F057
:1010C0008FF80546042D17D10C480069022108430A
:1010D0000A490861084644610069402108430749FC
:1010E00008610B20000400F07BF805460348006906
:1010F0000221884301490861284630BD0020024092
:1011000004200D49C968C907C90F002901D0012071
:1011100010E00949C96810221140002901D00220BD
:1011200008E00549C96804221140002901D00320C4
:1011300000E00420704700000020024003480069DE
:1011400080210843014908617047000000200240E7
:1011500078B506460C460425002000900B200004BC
:1011600000F03EF80546042D24D113480069012102
:1011700008431149086134800B20000400F030F866
:101180000546042D10D1B01C0090200C0099088059
:101190000B20000400F024F80546074800694008C9
:1011A00040000549086105E0034800694008400027
:1011B00001490861284678BD0020024005480069C1
:1011C00080210840002804D00348024948600348B1
:1011D000486070470020024023016745AB89EFCD8E
:1011E00010B503460424FFF78BFF044603E0FFF726
:1011F00087FF04465B1E012C01D1002BF7D1002B89
:1012000000D10524204610BD70471CB501212320C4
:10121000400400F03FFC684600F0C6F880200090D3
:101220000121684601710021817141710221C17162
:1012300069460920C00600F042F81CBD1CB501211A
:101240002320400400F026FC684600F0ADF80120A1
:1012500000030090012168460171002181714171F4
:10126000C17169460920C00600F029F80120C002BA
:10127000009000216846017141710221C1716946E7
:101280000920C00600F01BF80820009000216846E5
:10129000017141710221C17169460920C00600F047
:1012A0000EF8102000900021684601714171022162
:1012B000C17169460920C00600F001F81CBDF0B5F7
:1012C0000A4600210023002400BF3DE001258D4097
:1012D0002B4615681D402C469C4234D11579012DB2
:1012E00002D01579022D16D185684F000326BE4025
:1012F000B543856055794E00B540866835438560B5
:10130000858801268E40B5438580858896798E40F4
:10131000B6B23543858005684F000326BE40B5430D
:10132000056015794E00B540066835430560C5680F
:101330004F000326BE40B543C560D5794E00B54089
:10134000C6683543C560491C1029BFD3F0BDF0B550
:10135000002300244D07EE0E1546B5402B46CD1058
:10136000AE0005462035AD594E07F70E0F26BE409C
:10137000B543CE10B60007462037BD51CD10AE00A4
:101380003D46AD591D432C46CD10AD003E4674512F
:10139000F0BD02460020138A0B40002B01D0012033
:1013A00000E0002070470000044901600021017145
:1013B0000121417100218171C1717047FFFF00005F
:1013C000002A01D0816100E00185704700BFFEE77F
:1013D000F8B50025AC480068401CAB4908600846D9
:1013E0000068012809D8A948007800F045FDA849FF
:1013F000086008460068A7490860A448007800F023
:101400003BFDA3490860A448007800287ED0A3488B
:1014100000780028FAD0002500241CE02846691C2A
:10142000CDB240009E49085EA1009E4A5050284619
:10143000691CCDB240009A49085EA1009A4A5050FA
:101440002846691CCDB240009549085EA100974A24
:101450005050601CC4B2042CE0DB92490968914AE8
:10146000526889188F4A926889188E4AD2688918FA
:101470008808FEF73DFF8E4908608B4909688A4A53
:1014800052688918884A92688918874AD2688918E8
:101490008808FEF72DFF8749086084490968834A58
:1014A00052688918814A92688918804AD2688918D6
:1014B0008808FEF71DFF804908607E4801687C4867
:1014C0000068FEF741FE06467B4801683046FEF79D
:1014D0003BFE7A490860764801688920C005FEF71E
:1014E0008CFE0746754801683846FEF7C3FE06467F
:1014F000FEF705FF724908606E4801688920C00543
:10150000FEF77BFE07466D48016800E0A4E0384620
:10151000FEF7B0FE0646FEF7F2FE6A49086066482E
:1015200001688920C005FEF768FE07466348016828
:101530003846FEF79FFE0646FEF7E1FE6249086068
:1015400062490868FEF7D4FE06465C4801683046EA
:10155000FEF702FF0FD25D490868FEF7C9FE074695
:10156000564801683846FEF744FE0646FEF7C7FEB9
:10157000574908600EE055490868FEF7B9FE07466E
:101580004E4801683846FEF730FE0646FEF7B7FEC5
:101590004F4908604F48006849490968884207D2A6
:1015A0004C48006846490968081A4B49086006E03B
:1015B0004848006842490968401A47490860474856
:1015C000006840490968884207D2444800683D499C
:1015D0000968081A4249086006E04048006839492D
:1015E0000968401A3E4908603E4800683649096863
:1015F000884207D23B48006833490968081A3A49CB
:10160000086006E0374800682F490968401A3649E3
:101610000860314800683249096840183249096851
:101620004018324908602A480068096840187D213E
:10163000C900081A2E49086008460068002802DC24
:101640000020086008E02A4800687D21C90088421F
:1016500002DB0846264908602648006826490968D2
:10166000884203D30120254908700BE02248006816
:1016700023490968401A1F490968884202D300209B
:101680001E490870F8BD0000780000205C000020B2
:10169000640000206000002000000020A400002062
:1016A000540700206C0700207C0700208C070020D6
:1016B000BC000020C0000020C4000020C8000020A2
:1016C000E0000020E4000020E80000209C00002052
:1016D000D800002084000020CC0000208C000020D6
:1016E000D000002094000020D4000020DC00002066
:1016F000F00000206C00002070000020240000207A
:1017000074000020F8B5002500240120A2490870CB
:101710000020A2490870FF20F530FFF7BBFCA0486D
:10172000007800285DD000209D49087000BF00BFF0
:101730001CE02846691CCDB240009A49085EA10011
:10174000994A50502846691CCDB240009549085E20
:10175000A100964A50502846691CCDB240009149DC
:10176000085EA100924A5050601CC4B2042CE0DB19
:101770008D4909688C4A526889188B4A9268891881
:10178000894AD26889188808FEF7B2FD8949097824
:101790008900894A505085490968844A52688918E5
:1017A000824A92688918814AD26889188808FEF7A7
:1017B0009FFD804909788900804A50507C4909681A
:1017C0007B4A526889187A4A92688918784AD2689E
:1017D00089188808FEF78CFD764909788900784ACF
:1017E000505074480078401C7249087008460078D0
:1017F00002287DDB002008706F4A51681068FEF7F0
:10180000B5FD07D86C4A51681068FEF7EEFC6D49CB
:10181000086006E0684A11685068FEF7E6FC69490E
:101820000860664A51681068FEF7A0FD07D8634A51
:1018300051681068FEF7D9FC6349086006E05F4A0A
:1018400011685068FEF7D1FC5F4908605C4A516836
:101850001068FEF78BFD07D8594A51681068FEF7EB
:10186000C4FC5A49086006E0554A11685068FEF702
:10187000BCFC564908605448016852480068FEF7AD
:1018800075FD02D24F48006801E04F48006850499A
:1018900008604E4801684E480068FEF767FD02D2B6
:1018A0004B48006801E04948006849490860002049
:1018B000484908604348016845480068FEF74CFD08
:1018C0001ED13D4A11685068FEF73EFC07460121D3
:1018D0008907FEF7CFFC0646FEF711FD3E4908607A
:1018E00000203E4908703B4800683B49096800E019
:1018F0004EE04018012109074018364908603FE0D2
:101900003148016832480068FEF726FD1CD12B4A99
:1019100011685068FEF718FC074601218907FEF799
:10192000A9FC0646FEF7EBFC2B49086001202B4979
:1019300008702848006828490968401801214907AB
:101940004018244908601BE01D4A11685068FEF7E2
:10195000FBFB074601218907FEF78CFC0646FEF7D4
:10196000CEFC1D49086002201C4908701948006817
:10197000194909684018012189074018154908606C
:1019800014480168002000F0A3FE002002490870FE
:10199000002013490870F8BD830000200F000020CC
:1019A00054000020540700206C0700207C07002012
:1019B0008C0700208200002028000020300000203A
:1019C0003800002040000020440000204800002093
:1019D0004C00002008010020700000205C00002066
:1019E0007C0000207047000000218278002A27D068
:1019F000184A03231B02D21803789B109B00D1586E
:101A000002789207D30EFF229A400B469343194661
:101A100042789207120E03789B07DB0E9A4011431F
:101A20000C4A03231B02D21803789B109B00D15051
:101A30000278D306DB0E01229A40064B1A6007E0BB
:101A40000278D306DB0E01229A40024B80331A60E3
:101A50007047000000E100E0704700000C49496851
:101A60000122920391430A4A51601146496882B2A9
:101A70001143074A51601146096B92159143044A7C
:101A800011631146096B020C1143014A116370473F
:101A900000100240002905D0054A52690243044B58
:101AA0005A6104E0024A52698243014B5A6170470D
:101AB00000100240002905D0054AD2690243044BB8
:101AC000DA6104E0024AD2698243014BDA6170476D
:101AD00000100240002905D0054A12690243044B58
:101AE0001A6104E0024A12698243014B1A6170478D
:101AF00000100240002905D0054A92690243044BB8
:101B00009A6104E0024A92698243014B9A617047EC
:101B100000100240002905D0054AD2680243044B58
:101B2000DA6004E0024AD2688243014BDA6070470F
:101B30000010024010B50521C9040120C00300F0C7
:101B40007BF9012000F064F90848FFF787FF00BF28
:101B5000192000F031F90028FAD0022000F07EF9B7
:101B600000BF00F04DF90828FBD110BD0040000176
:101B7000FEB504460025002600200290019000904A
:101B80000027864840680C2108400546002D06D0F5
:101B9000042D07D0082D08D00C2D2CD128E080482A
:101BA00020602BE07E48206028E07C4840680F21C0
:101BB000890408400646794840680321C903084063
:101BC0000290B00C861C0298002803D17548374655
:101BD00047430BE07148C06A0007000F401C0190AA
:101BE0006F480199FEF79AFA70430746276005E0AF
:101BF0006D48206002E06A48206000BF00BF67486F
:101C00004068F021084005462D096848405D009075
:101C100020680099C8406060604840680721090258
:101C2000084005462D0A6148405D009061680098B3
:101C3000C140A1605948006BFF2101310840884232
:101C400002D05B48E0600DE0544840680121890300
:101C50000840884203D0A0684008E06002E0A06825
:101C60008008E0604D48006B40210840402802D0C9
:101C70005048206102E00120C00320614748006B0A
:101C800010210840102802D04548606101E020681A
:101C900060614248006B8007800F002802D1A06875
:101CA000A06119E03D48006B8007800F012802D138
:101CB0002068A06110E03948006B8007800F02287F
:101CC00002D18003A06107E03448006B8007800FD9
:101CD000032801D13248A0613048006B0321090478
:101CE0000840002802D1A068E06120E02B48006B8A
:101CF00003210904084001210904884202D1206817
:101D0000E06114E02548006B03210904084001212B
:101D10004904884202D18010E06108E01F48006B4E
:101D2000032109040840884201D11D48E0611B4895
:101D3000006B032189040840002802D1A0682062BA
:101D400020E01648006B0321890408400121890422
:101D5000884202D12068206214E01048006B032101
:101D6000890408400121C904884202D1001120627F
:101D700008E00A48006B032189040840884201D129
:101D8000074820620548006B80210840802802D067
:101D90000548606200E06762FEBD0000001002407E
:101DA00000127A0000093D00006CDC0210010020E6
:101DB000809FD5001280000010B50246002100234C
:101DC00000205111002902D10C4C23680BE001299D
:101DD00002D10A4C236A06E0022902D1074C636A49
:101DE00001E0064C636BD106C90E01248C401C40F7
:101DF000002C01D0012000E0002010BD00100240A6
:101E0000024840680C210840704700000010024062
:101E1000002807D007490968012212061143054A24
:101E2000116006E003490968012212069143014A44
:101E30001160704700100240074A52687B23DB03A1
:101E40009A43054B5A601A46526803460B431A439D
:101E5000014B5A607047000000100240014600200C
:101E6000044A50688008800002460A431046014A2E
:101E7000506070470010024010B50446002C04D09A
:101E8000012C0FD0022C27D119E00C21154800F0AD
:101E9000D1FB0021134800F0CFFB0021114800F0D6
:101EA000CDFB1AE000210F4800F0C4FB0C210D48C7
:101EB00000F0C2FB00210B4800F0C0FB0DE0002148
:101EC000084800F0B7FB0021064800F0B5FB0C21E4
:101ED000044800F0B3FB00E000BF00BF0248006808
:101EE00010BD0000002C014010000020704710B50C
:101EF0000446012C06D1012201030920C006FFF788
:101F00005FFA06E00022012109030920C006FFF75D
:101F100057FA10BD0CB500200190009031480068C0
:101F20000121090408432F49086000BF2D480068BB
:101F300001214904084000900198401C019000983C
:101F4000002804D10521090301988842EED12548D3
:101F50000068012149040840002802D001200090B7
:101F600001E0002000900098012839D111201E497D
:101F700008601C4840681B49486008464068486043
:101F8000084640687F21C9038843164948600846CF
:101F90004068112109040843124948600846006856
:101FA0000121090608430F49086000BF0D48006879
:101FB0000121490608400028F8D00A4840688008F6
:101FC00080000849486008464068022108430549E6
:101FD000486000BF034840680C2108400828F9D138
:101FE0000CBD0000001002400020024070470000BD
:101FF00010B51B48006801210843194908600846CC
:102000004068184908401649486008460068164963
:102010000840134908600846006801218904884384
:102020000F490860084640683F21090488430C496D
:1020300048600846C06A00090001C8620846006B93
:10204000FF2154318843064908630846406B400825
:102050004000486300208860FFF75CFF10BD00006F
:10206000001002400CB8FF08FFFFF6FE10B501217A
:10207000044800F0A7F9002803D00121014800F02E
:10208000F0F810BD002000401FB501210802FFF745
:1020900011FD144800F008F9132168460170012170
:1020A00081704170FFF7A0FC01A800F007FB002140
:1020B00068468181C1807D20C00002902F21684642
:1020C00081800021817301A9064800F0B9FA01223C
:1020D0001146044800F089F90121024800F0C4F8D3
:1020E0001FBD00000020004010B50121274800F06E
:1020F00069F9012803D10121244800F0AFF8022139
:10210000224800F05FF9002810D002211F4800F09B
:10211000A5F81E4800F04AF900B21D49088008469B
:1021200000880C2802D11B48FEF714FA0421174836
:1021300000F048F9002810D00421144800F08EF86F
:10214000124800F036F900B21349088008460088AA
:102150000C2802D10F48FEF7FDF908210B4800F0CA
:1021600031F9002810D00821084800F077F8074816
:1021700000F022F900B209490880084600880C28BE
:1021800002D10448FEF7E6F910BD0000002C014022
:102190000600002000240140080000200A00002062
:1021A00010B50121880700F00DF900281BD00E485A
:1021B0000078002813D10C210C4800F03BFA0021D4
:1021C0000A4800F039FA0021084800F037FA0120E7
:1021D0000749087004480078401C03490870012131
:1021E000880700F03BF810BD02000020002C0140E1
:1021F0000300002010B501210E4800F0E3F800288C
:1022000016D00D480088401C0B4908800B48006818
:10221000401C0A490860084800880F2804DB002099
:102220000549088000F088FC0121024800F019F8F7
:1022300010BD0000000400408000002020000020AD
:10224000002904D0028880231A43028003E0028818
:10225000014B1A40028070477FFF0000CA43028290
:102260007047CA4302827047002904D002880123C4
:102270001A43028003E00288014B1A400280704733
:10228000FEFF0000002907D04422125A0123DB037D
:102290001A4344231A5205E04422125A53045B0C99
:1022A000442213527047000010B504463748844258
:1022B00008D10121C014FFF72DFC0021E014FFF725
:1022C00029FC62E001208007844208D101210846F0
:1022D000FFF700FC00210120FFF7FCFB55E02C4834
:1022E000844208D101210220FFF7F4FB00210220E3
:1022F000FFF7F0FB49E02748844208D10121102074
:10230000FFF7E8FB00211020FFF7E4FB3DE0224847
:10231000844208D101212020FFF7DCFB002120208E
:10232000FFF7D8FB31E01D48844208D10121801518
:10233000FFF7D0FB0021A015FFF7CCFB25E01848E4
:10234000844209D101210804FFF7E4FB00210120A8
:102350000004FFF7DFFB18E01248844209D1012195
:102360004804FFF7D7FB002101204004FFF7D2FB10
:102370000BE00D48844208D101218804FFF7CAFB15
:10238000002101208004FFF7C5FB10BD002C014097
:1023900000040040001000400014004000200040F5
:1023A0000040014000440140004801400146486BA4
:1023B00070470146886B70470146C86B70470146FD
:1023C000486A704730B50246002000230024158A71
:1023D0000D402B4695890D402C46002B03D0002C38
:1023E00001D0012000E0002030BD002A03D0838905
:1023F0000B43838102E083898B4383817047000014
:1024000070B5002400220023058C1C4E3540058445
:10241000028C8388048B194D6F3D2C40B51E2C40D7
:102420000D882C43751E2A408D892A434D882A43E6
:10243000134DA84208D0134DA84205D0124DA84212
:1024400002D0124DA84212D10C4DED1F2A40CD8969
:102450002A430A4DED1E2A408D882A43074DFF3D31
:102460002B400B4D2B400D8A2B434D8A2B438380F1
:1024700004838D684563028470BD0000FEFF000088
:10248000002C014000400140004401400048014050
:10249000FFFD00000A460021018B034B19400B464B
:1024A0001343194601837047F7FF000070B50024FD
:1024B00000220023058C214E35400584028C838840
:1024C000048B1F4D2C401F4D2C400D782D062D0CDC
:1024D0002C431A4D103D2A408D892D052D0C2A4381
:1024E0004D882D052D0C2A43174DA84202D0174DBB
:1024F000A8421CD1164D2B400D8AAD042D0C2B4348
:10250000114DA84213D10D4D703D2A40CD892D05A6
:102510002D0C2A43094D303D2A408D882D052D0C68
:102520002A430C4D2B404D8AAD042D0C2B43838048
:1025300004838D688563028470BD0000EFFF000096
:10254000FF8F0000FFFC0000002C01400040014014
:10255000FFFB0000FFF700000A460021018B034B40
:10256000194013061B0C194301837047FFF7000045
:1025700070B5002400220023058C1C4E35400584D4
:10258000028C8388848B194D90352C40174DFD3576
:102590002C400D882C43164D2A400D7B2D062D0C0A
:1025A0002A438D782D062D0C2A43124DA84217D1AF
:1025B000114D2A408D7B2D062D0C2A430F4D2A40AC
:1025C0000D792D062D0C2A430D4D2B400D4D2B4022
:1025D0000D8A2D052D0C2B434D8A2D052D0C2B43DB
:1025E000838084838D68C563028470BDFFFE000014
:1025F000FFFD0000002C0140FFF70000FFFB000082
:10260000FFEF0000FFDF00000A460021818B034B33
:1026100019400B461343194681837047F7FF0000AA
:102620008288034B1A40828082880A4382807047E6
:102630008FFF00004163704781637047C16370473B
:1026400000220288154B984206D001239B0798422E
:1026500002D0134B984203D1124B1A404B881A43B5
:10266000114B984203D0114B1A400B891A43028038
:102670004B68C3620B880385084B984208D00C4B0B
:10268000984205D00B4B984202D00B4B984201D197
:102690008B7A03860123838270470000002C01405F
:1026A000000400408FFF000000100040FFFC00000D
:1026B0000040014000440140004801400021C9435E
:1026C00041600021018001814180817270470000DA
:1026D00070B504460D46FEF771FD3520FEF7E4FCAB
:1026E0000748FEF7E7FCA100054A88182946FEF7CF
:1026F0002FFD3520FEF7D8FCFEF720FD70BD000051
:102700000070000802E008C8121F08C1002AFAD1B0
:1027100070477047002001E001C1121F002AFBD161
:102720007047000000B587B001214802FFF7E2F9C9
:102730001848FDF7A5FE01A8FDF711FF0020694626
:10274000087205900190069001A91248FDF7DEFE7F
:1027500001211048FDF7F0FE032201210D48FDF78D
:1027600063FE0C48FDF79CFE01210A48FDF768FE58
:1027700000BF09490748FDF7B1FE0028F9D0012143
:102780000448FDF769FE02210248FDF771FE07B01B
:1027900000BD0000002401400100000100B58DB023
:1027A00001210846FFF776F90921684601710121E8
:1027B00081710021417101A8FFF716F91748FEF752
:1027C000F3FA02A8FEF7E6FB012005900020049032
:1027D0000C901348039001208002099080200790FC
:1027E00020200A900F480290801508900020069043
:1027F000012040030B9002A90848FEF7ABFB012221
:1028000002210648FEF79CFB0220FEF7AFFA0121E9
:102810000248FEF7BBFA0DB000BD00000800024000
:1028200020010020402401401CB501214804FFF78D
:1028300031F96846FEF7B8FD012000900321684693
:1028400001710021817141710121C1716946092025
:10285000C006FEF734FD1CBD00B58BB0012102207F
:10286000FFF728F90121C802FFF744F901210846C2
:10287000FFF720F901214804FFF70CF96846FEF73D
:1028800093FD814800900221684601710021417149
:10289000C17169460920C006FEF711FD02221146EA
:1028A0000920C006FEF753FD022208210920C006B8
:1028B000FEF74DFD02220921C806FEF748FD02225F
:1028C0000A210920C006FEF742FD0D21684601726B
:1028D000012181720221417202A8FFF785F80F21C0
:1028E00068460172012181720621417202A8FFF738
:1028F0007BF8102168460172012181720421417226
:1029000002A8FFF771F86148FFF7CEFC08A8FFF7AF
:10291000D5FE00216846018541847D20C0000990D4
:102920002F2168460184002108A8817208A9574810
:10293000FFF786FE012211465448FFF756FD01219C
:102940005248FFF791FC01208007FFF7ADFC08A873
:10295000FFF7B4FE0021684641840F2080010990F2
:10296000052168460184002108A8817208A9012078
:102970008007FFF765FE6021684681810121C181E2
:10298000B020059000216846018303A9012080073B
:10299000FFF7EEFD0821C806FFF736FE0121880784
:1029A000FFF74EFC012211469007FFF71EFD202184
:1029B0004806FFF735FE01218807FFF755FC052182
:1029C00068460184002141840520C001099008A8BF
:1029D000817208A92E48FFF733FE60216846818185
:1029E0000121C18100210182018308214183490124
:1029F00081830021C1830C20059003A92448FFF79F
:102A0000FFFC00212248FFF745FD0C20059003A99B
:102A10001F48FFF74BFD00211D48FFF79DFD0C20CF
:102A2000059003A91A48FFF7A3FD00211848FFF7F6
:102A3000EBFD012211461648FFF7D7FC01220221C7
:102A40001348FFF7D2FC012204211148FFF7CDFC07
:102A5000012208210E48FFF7C8FC01210C48FFF7AE
:102A6000EFFB40210A48FFF7DBFD01210848FFF793
:102A7000F8FB01210648FFF705FC01210448FFF798
:102A8000F3FB0BB000BD0000040700000004004091
:102A9000002C014010B5FFF74DF8FEF7CFFB00F01A
:102AA00089F80648FFF764F8FFF7EEFA0448FEF7E6
:102AB000F1FAFEF77DFA002010BD00002C0700207F
:102AC00088130000002017490968174A1160114651
:102AD0000968080F00070F2109074118002909D0CC
:102AE0000F2212078918002908D0520089180029DE
:102AF0000CD107E000210D4A117008E001210B4ABA
:102B0000117004E00221094A117000E000BF00BF0B
:102B10005021074A1160044909680802000A054962
:102B200008607047007000080C0100205C00002065
:102B3000740000207000002010B510210920C0068C
:102B4000FEF727FC012805D118480088401C1749CA
:102B500008802AE015480088642807DD13480078BB
:102B6000134908700020114908801EE00F480088B2
:102B700064280BDA0D480088322807DD0B480078FE
:102B80000B4908700020094908800EE007480088BA
:102B900032280ADA05480088022806DD0348007852
:102BA0000349087000200149088010BD7E00002004
:102BB0007C00002010B5FFF737FEFFF7B3FDFFF7ED
:102BC000EDFDFFF749FEFEF71FFBFEF71EFB10BDF4
:102BD000F02B00080000002020010000042700085E
:102BE000102D000820010020980A0000142700087A
:102BF00000000000000000000000000000000000D5
:102C000000000000000000000000000000000000C4
:102C100000000000000000000000000000000000B4
:102C200000000000000000000000000000000000A4
:102C30000000000000000000000000000000000094
:102C40000000000000000000000000000000000084
:102C50000000000000000000000000000000000074
:102C6000F40100005000000000000000000000001F
:102C70000000000000000000000000000000000054
:102C80000000000000000000000000000000000044
:102C90000000000001000000000000000000000033
:102CA0000000000000000000000000000000000024
:102CB0000000000000000000000000000000000014
:102CC0000000000000000000000000000000000004
:102CD00000000000000000000000000000000000F4
:102CE0000000000000000000000000000000E803F9
:102CF0000000000000000000320000120000000090
:102D00000000000001020304010203040607080991
:04000005080000B13E
:00000001FF
