:020000040800F2
:1000000030050020C5000008B90D0008BD0B000830
:1000100000000000000000000000000000000000E0
:10002000000000000000000000000000791100083E
:1000300000000000000000000D0E00083112000852
:10004000F5000008F5000008F5000008F5000008BC
:10005000F5000008F5000008F5000008F5000008AC
:100060000000000061060008F5000008F500000827
:10007000F500000895120008F50000082D1300088F
:10008000491300080000000000000000F50000080F
:1000900000000000F5000008F5000008F500000869
:1000A00000000000F500000800000000F500000856
:1000B0000348854600F076F900480047D91A000841
:1000C000300500200C4880F308880C480168090EB0
:1000D0000B4A914205D10B480B4901600B480C4972
:1000E00001600C4880470C480047FEE7FEE7FEE74A
:1000F000FEE7FEE7FEE700003005002004000000F8
:100100001F00000018100240010000000000014024
:100110000000000035120008B100000830B50B46A1
:10012000014600202022012409E00D46D5409D42D1
:1001300005D31D469540491B254695404019154657
:10014000521E002DF1DC30BDF8B502464A40D40FF6
:1001500042004B0052085B089A4202D2024608460F
:1001600011464A0023D0C30D4A00DDB2120EAD1A6B
:10017000202D35DA49020126490AF6058A19002C94
:1001800000D0524220214F1B1146B9402A4110187D
:10019000C20D9A4221D0002C17D0012D08DCDA05BF
:1001A000801AD20F8019D207DBB200F0C1F8F8BD77
:1001B000DA05801A012340001B06C01880185A4235
:1001C0008018CA0F1043490007E04908C2071143CD
:1001D000DA05801A80194008801800F0A1F8F8BDEF
:1001E00061000122511A001BF7E70122D20751409A
:1001F000AAE70122D2075040A6E770B502464A405E
:10020000D50F40004A00ED0740085208002814D0DE
:10021000002A12D0C40DD30D41020120C0055202A4
:10022000490A520AE41A091812187D34914201D37E
:10023000641C00E04900002C01DA002070BD00239E
:10024000914201D3891A0343400849000028F7D19D
:1002500000290AD0914202D10121C90705E091424B
:1002600001D2012101E00121C943E005C018401974
:1002700000F056F870BD420005D04200120E524206
:100280008A4201DB00207047C9050818704710B585
:1002900000229623114600F04BF810BDC20F41001A
:1002A00040020123400ADB05D207090EC0187F294E
:1002B00001DA00207047962903DC9623591AC840BA
:1002C00001E096398840002AF4D04042704741004E
:1002D00040020122400AD205090E80187F2901DA66
:1002E00000207047962903DC9622511AC8407047B7
:1002F00096398840704700000122D207002800DBB1
:10030000101A002900DB511A814270470122D207DE
:10031000002800DB101A002900DB511A88427047C0
:10032000002904DA401C490001D140084000704710
:1003300070B40024050C05D11024000402D100295A
:1003400021D01124050E01D100020834050F01D17E
:100350000001241D850F01D18000A41C002801DBB1
:100360004000641C002908D020252E1B0D46F540B6
:10037000A14000D001212943084301061B1B000AAC
:10038000DB1D02D5002070BC7047DB0518188018F3
:100390000029F8DA401C4900F5D170BC4008400043
:1003A00070470000064C0125064E05E0E36807CCC7
:1003B0002B430C3C98471034B442F7D3FFF77CFE34
:1003C000941B0008B41B0008836A0B4383624261DC
:1003D00070470029816801D0012200E00222114308
:1003E000816070470029C16802D00122114301E0F9
:1003F00049084900C1607047C26802239A43C2603D
:10040000C2680A43C2607047064910B5884208D1E5
:1004100044150121204600F041FD0021204600F056
:100420003DFD10BD00240140826800210123DB074F
:100430001A4382600F231B038268491CD20FD20724
:10044000994201D0002AF7D18168002901DB006CB4
:1004500070470020704702460020CB0104D5926807
:1004600001231B069A4300E012680A4200D00120D3
:100470007047000030B5C368084A8C6813400A68AA
:100480000D792243CC686D032C4322430C694969E2
:1004900022430A431A43C26030BD000003D2FFFF6B
:1004A000012212030029C16801D0114300E09143E9
:1004B000C160704781680422114381607047002148
:1004C000016001718160C16001614161704700009C
:1004D000F0B55E4C85B00120002620715C483546A1
:1004E000067037465B4800F0F3F9A079002845D044
:1004F000A77171005848594A435EA9005350761CB1
:10050000F2B25300C65E554B521C10335E50D2B24D
:100510005300C05E514B521C20336D1CEDB258503D
:10052000D6B2042DE5D34D4806C889180268406844
:10053000101808188008FFF7AAFEE1788D004349DB
:10054000843148514548103006C88918026840680F
:10055000101808188008FFF79AFE3C498C31485162
:100560003E48203006C889180268406810180818EC
:100570008008FFF78CFE354994314851E0780490AB
:10058000850032488C3040590290304802998430BE
:1005900040590190FFF7D8FD2C4994314E5931460E
:1005A000FFF7D2FDFFF793FE28497C314851FFF752
:1005B0006EFE009003900A210198FFF75CFE0399FC
:1005C000FFF71BFEFFF783FE204964314851009876
:1005D00001900A210298FFF74EFE0199FFF70DFEE8
:1005E000FFF775FE19496C3148510A213046FFF773
:1005F00042FE0099FFF701FEFFF769FE13497431CF
:1006000048510498401CC0B2E07002281AD3084632
:10061000E770103805C8101A0A46083AE0640CCA98
:100620009A1A22650AC980185B1A084963657C31E9
:1006300022C9C018691AA165E06508187D21C900A2
:10064000081A2062A77205B0F0BD00000400002067
:100650000300002088130000E800002000010020B3
:1006600010B5022000F0A0F8002819D00E480E4C5A
:1006700002880E48343481784B00491CC9B2E252DA
:1006800081700C290CD30021817009490A7801215D
:10069000002A04D0C278002A01D1C1700548017037
:1006A000022000F009F810BDB40000200000002076
:1006B000080000200A000020C10001D5024900E026
:1006C00002494860704700000004024000000240F8
:1006D0000029016802D00122114301E0014A1140C2
:1006E00001607047FEFF0000F0B501682B4A114021
:1006F00001600021016041608160C1602849284B90
:1007000008390F22984201D1486823E0244CF02395
:100710001434A04229D0224D1C012835A8422BD0E8
:100720001F4E1D023C36B0422DD01D4F1E035037C8
:10073000B8422FD01A4F6437B84204D148681A041F
:1007400008E04860F0BD164F7837B84204D14868D9
:100750000F2212061043F4E71249124F0839B8422B
:10076000D2D0104A1432904202D148681843E8E7C8
:100770000C4A2832904202D148682043E1E7094AF6
:100780003C32904202D148682843DAE7054A5032A9
:100790009042D7D148683043D3E70000FEFF000005
:1007A000080002400804024001460020CA0001D5AA
:1007B000034A00E0034A12680A4200D00120704751
:1007C0000004024000000240002A026801D00A43EF
:1007D00000E08A430260704730B503680C4A0C6A37
:1007E00013408A684D6922430C692C4322438C696B
:1007F0002243CC6922434C6A22438C6A22431A4327
:100800000260CA6842600A6882604968C16030BD9F
:100810000F80FFFF0021016041608160C1600161C4
:1008200041618161C1610162416281627047000082
:1008300001F06AF90024012509262D03F606274652
:1008400000F098F9641C0A2CFADB204C6078002830
:100850000ED000222946304600F086F96169E06931
:10086000401A7D21C9008842F0D36770A7612770C4
:10087000E07800280ED100F03BFC207200F07AF9FD
:10088000207AE179884201D1012000E000206072E5
:1008900000F073FCA07A0028D8D02946304600F03A
:1008A0004FF902462946304600F05EF90121C9029F
:1008B000304600F045F9002804D0FFF709FE01207A
:1008C0006071C3E7677100F07BF9BFE704000020A7
:1008D000401E00B20028FBDC704700000149C860E0
:1008E0007047000000200240F0B50B2706463F0489
:1008F000384600F067F804280FD1084C206902251B
:100900002843206166612069402108432061384600
:1009100000F058F82169A9432161F0BD0020024090
:1009200008490420CA68D20701D001207047CA686C
:10093000D20601D502207047C9684907FBD50320BC
:1009400070470000002002400248016980221143E4
:100950000161704700200240F8B5064600200B27D1
:100960003F0400900D46384600F02CF8042815D1BD
:100970000B4C20690121084320613580384600F086
:1009800021F8042806D1B61C280C00963080384681
:1009900000F018F82169490849002161F8BD0000FC
:1009A0000020024004480169090603D5034941605B
:1009B0000349416070470000002002402301674561
:1009C000AB89EFCD00B50346FFF7AAFF02E0FFF7C2
:1009D000A7FF5B1E012803D0002B00D1052000BD1E
:1009E000002BF4D1FAE700007CB52320012140045C
:1009F00000F024FA684600F0ABF8E22000900126EF
:100A0000684606710024847144710225C57109206D
:100A10006946C00600F04CF80B4800906846067125
:100A200084714471C5716946084800F041F803209B
:100A300000906846067184714471C5716946044826
:100A400000F036F87CBD0000FF0100000004004803
:100A5000001400487CB50121480400F0EFF9684615
:100A600000F076F80120000300900120694608712B
:100A700000248C7109254C71ED06CC71284600F0DC
:100A800017F81020009069460C714C710220C87153
:100A9000284600F00DF80548009069460C714C712D
:100AA000CC71284600F004F87CBD00000808000066
:100AB000F0B50022012423460D6893401D409D425D
:100AC0002AD10D79012D01D0022D12D18768550050
:100AD0000326AE40B74387604E79AE4085682E430B
:100AE000866085889D43858085888B7993401D43EA
:100AF0008580066855000323AB409E4306600E794F
:100B00000768AE403E430660C6689E43C660CB7928
:100B1000AB40C5682B43C360521C102ACBD3F0BD39
:100B20004B07DB0E9A40C90810B589000818016A06
:100B30000F249C40A1430162016A1143016210BD70
:100B40000246128A00200A4200D0012070470000AD
:100B50000449016000210171012242718171C1715A
:100B600070470000FFFF0000002A01D0816170473C
:100B70000185704710B5104CA06A401CA062012886
:100B800004D8A07800F0BEFA60642064A07800F079
:100B9000B9FA6064216C41184908A1642064206A94
:100BA000814201D3012004E0626A801A884201D3A5
:100BB0000020E07110BD000004000020FEE70000EE
:100BC000F8B5784F012000263871774934463D4604
:100BD0000E707648FFF77CFEA879002844D00020EC
:100BE000B87173480546103572007249A3008A5ED9
:100BF000C250761CF2B256008E5F521CEE50D2B23A
:100C000056008E5F6A49521C2031641CCE50E4B2FB
:100C1000D6B2042CE8D306C88918026840681018B8
:100C200008188008FFF733FBF9788C005D498431A0
:100C3000085129686868EA680818A968891840187E
:100C40008008FFF724FB57498C3108515848203061
:100C500006C8891802684068101808188008FFF74D
:100C600016FB504994310851F8783C46401CC0B2FC
:100C7000F870022877D34B4D0020E0708435696806
:100C80002868FFF743FB02D803CD083D01E029683F
:100C90006868FFF7B2FA0921FFF7EDFA414E2063C9
:100CA0008C3671683068FFF731FB02D803CE083EFE
:100CB00001E031687068FFF7A0FA0921FFF7DBFA5D
:100CC000384F6063943779683868FFF71FFB02D8A4
:100CD00003CF083F01E039687868FFF78EFA0921F1
:100CE000FFF7C9FAA063616B206BFFF70FFB01D21E
:100CF000206B00E0606BE063A16BFFF707FB01D2A4
:100D0000E06B00E0A06B0021E162E063216BFFF784
:100D1000F3FA11D129686868FFF716FA0021C94370
:100D2000FFF7A9FAFFF7BAFA00212062A170E16A81
:100D300008180121090728E0616BE06BFFF7DCFA76
:100D400012D131687068FFF7FFF90021C943FFF73E
:100D500092FAFFF7A3FA01212062A170E16A081854
:100D60000121490711E019E039687868FFF7ECF9CB
:100D70000021C943FFF77FFAFFF790FA02212062B2
:100D8000A170E16A08180121890740180146E06254
:100D9000002000F0DFFC0020E07020710020A07235
:100DA000F8BD0000040000200300002088130000AC
:100DB00000010020E80000207047000030B5837873
:100DC00001210278002B15D094080E4BA400E418E2
:100DD00023689207D50EFF22AA40934342789207D8
:100DE000120EAA401A4322600078C006C00E81404D
:100DF000054804E0D006C00E814003488030016001
:100E000030BD000000E400E000E100E070470000B9
:100E100009494A6801239B039A434A604A6883B29E
:100E20001A434A600A6B8B159A430A630A6B000CDB
:100E300002430A637047000000100240044A002980
:100E4000516901D0014300E08143516170470000C6
:100E500000100240044A0029D16901D0014300E09A
:100E60008143D1617047000000100240044A00290C
:100E7000116901D0014300E0814311617047000016
:100E800000100240044A0029916901D0014300E0AA
:100E9000814391617047000000100240044A00291C
:100EA000D16801D0014300E08143D1607047000068
:100EB0000010024010B50121C904002000F000F923
:100EC000012000F0EFF801200006FFF7A1FF192034
:100ED00000F0C6F80028FAD0022000F0FFF800F079
:100EE000D9F80828FBD110BDF8B5564D04466868FE
:100EF00000210C22544E104005D0042803D00828AD
:100F000003D00C281AD026601AE0696868680322AA
:100F10008902D2030F0F1040BF1C00280AD0E86AD4
:100F20000107090F3046491CFFF7F8F878430146DE
:100F3000216005E0454839464143F9E744482060CF
:100F40006868444F0006000F3B5C20680246DA40A8
:100F500062606B685B055B0FFB5CDA40A2602B6B29
:100F6000DB0501D43C4B05E06B685B0401D45308FE
:100F700000E09308E3602B6B5F06384B03D4374FD8
:100F80001237276100E023612F6BFF0601D46661F1
:100F900000E060612F6BBF070ED02F6BBF07BF0F44
:100FA000012F0BD02F6BBF07BF0F022F08D02F6B65
:100FB000FF43BF0706D006E0A26104E0A06102E0A3
:100FC000A36100E0A6612F6BBF03BF0F0FD02F6B93
:100FD000BF03BF0F012F0CD02F6BBF03BF0F022F1A
:100FE00009D02F6BBF03BF0F032F06D006E0E261CD
:100FF00004E0E06102E0E36100E0E6612F6B3F03A3
:10100000BF0F0FD02A6B1203920F012A0CD0286B4E
:101010000003800F022809D0286B0003800F0328EB
:1010200006D006E0226204E0206202E0236200E0D3
:101030002662286B000602D405486062F8BD616232
:10104000F8BD00000010024000127A0000093D00C7
:10105000006CDC02A2000020809FD5000080000010
:10106000034600200A495A090CD0012A0CD0022A52
:101070000CD0496BDA06D20E012393400B4200D00C
:10108000012070470968F5E7096AF3E7496AF1E763
:1010900000100240024840680C21084070470000E0
:1010A000001002400122054912060028086801D0FC
:1010B000104300E0904308607047000000100240B9
:1010C00010B5054A53687B24E403A3435360536877
:1010D00008430343536010BD00100240034A5168A7
:1010E00089088900014351607047000000100240E8
:1010F00010B509200821C006FFF722FD012800D005
:10110000002010BD10B5184C002804D0012808D0CC
:10111000022812D11EE00521204600F0D1FA00215C
:1011200004E00021204600F0CBFA0521204600F023
:10113000C9FA0021204600F0C7FA0C480C49027891
:10114000002A05D00B4B00229A5E0A610022027031
:10115000086910BD0021204600F0B2FA00212046A7
:1011600000F0B0FA0521E5E7002C01400000002066
:1011700004000020B400002070470121092310B5AD
:101180000903DB06012804D000221846FFF7ECFC17
:1011900010BD0122F9E700001CB500212248019191
:1011A0000091026801231B041A4302605B000522C0
:1011B000120304681C400094019C641C0194009C70
:1011C000002C02D1019C9442F3D10268920328D5ED
:1011D00001210091154A1121116041684160416867
:1011E000416041687F22D2039143416041681122EE
:1011F000120411434160016801221206114301608B
:1012000001688901FCD5416889088900416041680D
:1012100002221143416041680907890F0229FAD16E
:101220001CBD00911CBD00000010024000200240C7
:101230007047000010B51448016801221143016095
:101240004168124A114041600168114A1140016031
:101250000168012292049143016041683F22120417
:1012600091434160C16A09090901C162016BFF2212
:10127000543291430163416B4908490041630021A5
:101280008160FFF789FF10BD001002400CB8FF0815
:10129000FFFFF6FE10B5204C0121204600F0FEF8BD
:1012A000002837D01D4801781D48002901D0017859
:1012B000491C01701B480078002827D01A48417843
:1012C000491CC9B24170012904D0022908D0032960
:1012D00010D01BE00521204600F0F2F9002104E0C7
:1012E0000021204600F0ECF90521204600F0EAF943
:1012F000002108E00021204600F0E2F9002120460C
:1013000000F0E0F90521204600F0DEF90121204639
:1013100000F045F810BD0000002C01400400002042
:101320001C000020080000200000002010B5012152
:101330008C07204600F0B2F8002803D00121204697
:1013400000F02DF810BD000010B50D4C0121204615
:1013500000F0A4F8002812D00A490888401C82B284
:1013600009480A8003685B1C0360142A03D3002029
:10137000088000F0E7FB0121204600F010F810BDC6
:1013800000040040A000002020000020802200294E
:10139000018801D0114300E0914301807047C943A7
:1013A000018270470029018802D00122114301E027
:1013B000490849000180704740300029818803D0E6
:1013C0000122D203114301E04904490C8180704796
:1013D0002A4910B5884202D10121C4143AE0012102
:1013E0008907884206D101210846FFF73FFD002109
:1013F000012008E02249884208D101210220FFF79C
:1014000035FD00210220FFF731FD10BD1D49884246
:1014100006D101211020FFF729FD00211020F2E75D
:101420001949884206D101212020FFF71FFD002124
:101430002020E8E71549884207D18415012120467C
:10144000FFF714FD00212046DDE71149884209D14C
:1014500001210C042046FFF721FD00212046FFF763
:101460001DFD10BD0B49884202D101214C04F1E75A
:1014700009498842F5D101218C04EBE7002C014099
:101480000004004000100040001400400020004014
:101490000040014000440140004801400246138AD8
:1014A000002092890B400A40002B02D0002A00D075
:1014B00001207047002A828901D00A4300E08A4354
:1014C0008281704730B5028C520852000284038C2E
:1014D0008288048B7025AC43A4080D88A4002543A2
:1014E0000224A3438C891C434B8823430F4CA04206
:1014F00008D00F4CA04205D00E4CA04202D00E4C9A
:10150000A0420DD10824A343CC891C4304239C434F
:101510008B882343094C22400C8A14434A8A224375
:101520008280058389684163038430BD002C0140BB
:10153000004001400044014000480140FFFC000021
:10154000028B08239A430A430283704770B5028CCA
:1015500010239A430284048C8288038B1A4D2B40FB
:101560000D782D062D0C1D4320239C438B891B05D4
:101570001E0C4B8826431B051B0C144C3343A04206
:1015800002D0134EB04219D1124E32400E8AB60428
:10159000360C3243A04211D18024A343CC892405C8
:1015A000240C1C4340239C438B881B051B0C2343AA
:1015B000094C22404C8AA404240C224382800583D7
:1015C00089688163038470BDFF8C0000002C01409A
:1015D00000400140FFFB0000FFF70000028B034BBF
:1015E00009021A401143018370470000FFF7000011
:1015F00030B5028C1A4B1A400284038C8288848B8B
:101600007025AC43A4080D88A4002543154C234045
:101610000C7B2406240C1C438B781B061B0C2343D9
:10162000114CA04215D1114C23408C7B2406240C74
:101630001C430F4B1C400B791B061B0C23430D4C0A
:1016400022400C8A2405240C14434A8A1205120CE9
:101650002243828085838968C163038430BD000092
:10166000FFFE0000FFFD0000002C0140FFF700001E
:10167000FFFB0000FFCF0000828B08239A430A4340
:1016800082837047028970239A430A43028170471C
:10169000028980239A43028102890A4302817047AA
:1016A000828870239A43828082880A4382807047AE
:1016B0000289D208D200028102890A43028170475E
:1016C0004163704781637047C163704710B50288FA
:1016D000144B984206D00124A407A04202D0124C19
:1016E000A04203D17024A2434C8822430F4CA04255
:1016F00003D00F4C22400C89224302804A68C26208
:101700000A880285984208D00A4A904205D00A4ABF
:10171000904202D0094A904201D1897A0186012182
:10172000818210BD002C01400004004000100040E8
:10173000FFFC00000040014000440140004801401F
:101740000021C943416000210180018141808172F3
:101750007047000070B50E460546FFF723F93520A7
:10176000FFF7BCF8074C2046FFF7BEF8A8000019A9
:101770003146FFF7F1F83520FFF7B0F8FFF7E4F84E
:1017800070BD00000070000802E008C8121F08C108
:10179000002AFAD170477047002001E001C1121FF2
:1017A000002AFBD17047000030B5012187B0480204
:1017B000FFF768FB1C4C2046FEF726FE6846FEF746
:1017C0007EFE00216846017180200390C0000091D8
:1017D00004910591029069462046FEF74BFE0121D7
:1017E0002046FEF75DFE032201212046FEF7ECFDB8
:1017F0002046FEF719FE01212046FEF7EAFD0B4DBB
:1018000020462946FEF727FE0028F9D00121204670
:10181000FEF7E8FD02212046FEF7EEFD2046FEF72A
:1018200049FE07B030BD0000002401400100000166
:1018300070B501218CB00846FFF700FB092168460E
:1018400001700125857000244470FFF7B7FA154E2A
:101850003046FEF749FF01A8FEF7DCFF1248029070
:101860000394A80208900B948020069004952020F1
:1018700009900E48019080150790059440010A9048
:1018800001A93046FEF7A8FF012202213046FEF7EB
:101890009BFF0220FEF710FF01213046FEF718FFE4
:1018A0000CB070BD08000240B4000020402401408C
:1018B0001CB501214804FFF7C1FA6846FFF748F953
:1018C00001200322694600900A7100228A714A7140
:1018D000C8710920C006FFF7EBF81CBDF0B58BB04E
:1018E00001210220FFF7B6FA0121C802FFF7CAFA68
:1018F00001210846FFF7AEFA01214804FFF79EFADE
:1019000004A8FFF725F971480490022669460E7570
:1019100000244C750925CC75ED0604A92846FFF76F
:10192000C7F8022211462846FFF7FAF802220821DA
:101930002846FFF7F5F8022209212846FFF7F0F8BC
:1019400002220A212846FFF7EBF80D2069460873AA
:1019500001258D734E7303A8FFF730FA0F266946F1
:101960000E738D734C7303A8FFF728FA1020694695
:1019700008738D730420487303A8FFF71FFA544FB0
:101980003846FFF725FD6846FFF7DAFE69460C8109
:101990007D204C80000101900E808C723846FFF74C
:1019A00095FE012211463846FFF784FD0121384695
:1019B000FFF7F8FCA807FFF70BFD6846FFF7C0FE2E
:1019C00069464C807826072701960F808C72A807FD
:1019D000FFF77CFE6020694608834D830C20089049
:1019E0008C8406A9A807FFF703FE0821C806FFF7A5
:1019F00043FE01218807FFF7C9FC01221146900729
:101A0000FFF758FD20214806FFF74AFE0021A807EE
:101A1000FFF738FE05218807FFF74AFE8021C80539
:101A2000FFF736FE01218807FFF7BCFC69460F80EF
:101A30004C800196274E8C723046FFF747FE60209F
:101A4000694608834D838C838C840820C8844001B8
:101A500008854C85032406A930460894FFF732FD1B
:101A600008213046FFF76CFD06A930460894FFF7C1
:101A70006DFD08213046FFF7B1FD06A930460894F8
:101A8000FFF7B6FD08213046FFF7F6FD01221146AB
:101A90003046FFF70FFD01213046FFF777FC10219C
:101AA0003046FFF7FDFD01213046FFF778FC80212D
:101AB0003046FFF7EDFD01213046FFF77DFC0121A7
:101AC0003046FFF76FFC0BB0F0BD000004070000CC
:101AD00000040040002C014010B5FFF7EBF9FEF7C1
:101AE000B9FF00F04BF80648FFF7FEF90548401E25
:101AF00000B20028FBDCFEF79BFE002010BD0000BA
:101B0000C0000020881300000C4801680C480A0F30
:101B10000F2312071B070166D21807D0D21804D072
:101B20005B00DA4203D1022200E0012282705022DF
:101B30000902090A42620162704700000070000851
:101B40000400002010B509201021C006FEF7F8FFA0
:101B50000949012888890CD00022642806D8034648
:101B6000333B312B02D3C31E2F2B01D288728A81C3
:101B700010BD401C888110BD0400002010B5FFF787
:101B800097FEFFF711FEFFF753FEFFF7A7FEFEF7E4
:101B90002BFF10BDB41B000800000020B4000000A3
:101BA00088170008681C0008B40000207C040000AE
:101BB000981700080000000000000000000000006E
:101BC0000000000000000000000000000000000015
:101BD0000000000000000000640000005000000051
:101BE00000000000320000120000000000000000B1
:101BF00000000000000000000000000000000000E5
:101C000000000000000000000000000000000000D4
:101C100000000000000000000000000000000000C4
:101C200000000000000000000000000000000000B4
:101C300000000000000000000000000000000000A4
:101C40000000000000000000000000000000000094
:101C50000000000000000000000001020304010277
:081C6000030406070809000057
:04000005080000B13E
:00000001FF
