:020000040800F2
:1000000030050020C50000084B0A0008490A000816
:1000100000000000000000000000000000000000E0
:10002000000000000000000000000000090E0008B1
:1000300000000000000000009D0A0008050F0008F5
:10004000F5000008F5000008F5000008F5000008BC
:10005000F5000008F5000008F5000008F5000008AC
:100060000000000005060008F5000008F500000883
:10007000F5000008690F0008F500000801100008ED
:100080001D1000080000000000000000F50000083E
:1000900000000000F5000008F5000008F500000869
:1000A00000000000F500000800000000F500000856
:1000B0000348854600F048F90048004775170008D6
:1000C000300500200C4880F308880C480168090EB0
:1000D0000B4A914205D10B480B4901600B480C4972
:1000E00001600C4880470C480047FEE7FEE7FEE74A
:1000F000FEE7FEE7FEE700003005002004000000F8
:100100001F00000018100240010000000000014024
:1001100000000000090F0008B100000830B50B46D0
:10012000014600202022012409E00D46D5409D42D1
:1001300005D31D469540491B254695404019154657
:10014000521E002DF1DC30BDF8B502464A40D40FF6
:1001500042004B0052085B089A4202D2024608460F
:1001600011464A0023D0C30D4A00DDB2120EAD1A6B
:10017000202D35DA49020126490AF6058A19002C94
:1001800000D0524220214F1B1146B9402A4110187D
:10019000C20D9A4221D0002C17D0012D08DCDA05BF
:1001A000801AD20F8019D207DBB200F093F8F8BDA5
:1001B000DA05801A012340001B06C01880185A4235
:1001C0008018CA0F1043490007E04908C2071143CD
:1001D000DA05801A80194008801800F073F8F8BD1D
:1001E00061000122511A001BF7E70122D20751409A
:1001F000AAE70122D2075040A6E770B502464A405E
:10020000D50F40004A00ED0740085208002814D0DE
:10021000002A12D0C40DD30D41020120C0055202A4
:10022000490A520AE41A091812187D34914201D37E
:10023000641C00E04900002C01DA002070BD00239E
:10024000914201D3891A0343400849000028F7D19D
:1002500000290AD0914202D10121C90705E091424B
:1002600001D2012101E00121C943E005C018401974
:1002700000F028F870BD420005D04200120E524234
:100280008A4201DB00207047C9050818704710B585
:1002900000229623114600F01DF810BD41004002D7
:1002A0000122400AD205090E80187F2901DA0020B8
:1002B0007047962903DC9622511AC8407047963938
:1002C00088407047002904DA401C490001D14008E9
:1002D0004000704770B40024050C05D110240004C0
:1002E00002D1002921D01124050E01D100020834C9
:1002F000050F01D10001241D850F01D18000A41C30
:10030000002801DB4000641C002908D020252E1B9A
:100310000D46F540A14000D00121294308430106C4
:100320001B1B000ADB1D02D5002070BC7047DB05DB
:10033000181880180029F8DA401C4900F5D170BC63
:100340004008400070470000064C0125064E05E0BD
:10035000E36807CC2B430C3C98471034B442F7D3E6
:10036000FFF7AAFE3018000850180008836A0B43F4
:100370008362426170470029816801D0012200E058
:1003800002221143816070470029C16802D0012216
:10039000114301E049084900C1607047C268022367
:1003A0009A43C260C2680A43C2607047064910B5EA
:1003B000884208D144150121204600F0B7FB0021F6
:1003C000204600F0B3FB10BD0024014082680021EC
:1003D0000123DB071A4382600F231B038268491C39
:1003E000D20FD207994201D0002AF7D181680029A3
:1003F00001DB006C70470020704702460020CB01F3
:1004000004D5926801231B069A4300E012680A4251
:1004100000D001207047000030B5C368084A8C68DE
:1004200013400A680D792243CC686D032C432243A4
:100430000C69496922430A431A43C26030BD000077
:1004400003D2FFFF012212030029C16801D011432A
:1004500000E09143C16070478168042211438160CC
:1004600070470021016001718160C16001614161DB
:1004700070470000F0B55E4C85B001200026207169
:100480005C483546067037465B4800F0EDF9607908
:10049000002845D0677171005848594A435EA90049
:1004A0005350761CF2B25300C65E554B521C1033AB
:1004B0005E50D2B25300C05E514B521C20336D1CB3
:1004C000EDB25850D6B2042DE5D34D4806C8891870
:1004D00002684068101808188008FFF7D8FEE17815
:1004E0008D004349803148514548103006C889186D
:1004F00002684068101808188008FFF7C8FE3C49D9
:10050000883148513E48203006C889180268406842
:10051000101808188008FFF7BAFE35499031485185
:10052000E078049085003248883040590290304885
:100530000299803040590190FFF706FE2C49903116
:100540004E593146FFF700FEFFF7A8FE28497831E3
:100550004851FFF79CFE009003900A210198FFF795
:100560008AFE0399FFF749FEFFF798FE20496031A4
:100570004851009801900A210298FFF77CFE0199EA
:10058000FFF73BFEFFF78AFE1949683148510A21FF
:100590003046FFF770FE0099FFF72FFEFFF77EFE53
:1005A0001349703148510498401CC0B2E0700228D1
:1005B0001AD30846E770103805C8101A0A46083AD8
:1005C000A0640CCA9A1AE2640AC980185B1A084926
:1005D0002365783122C9C018691A6165A0650818B9
:1005E0007D21C900081AE061677205B0F0BD000006
:1005F000040000200300002088130000E400002015
:10060000FC00002070B5022000F0A2F800281AD0EB
:100610000F48012102780F48002A13D0C278002A1F
:1006200010D10D4A0C4D1388827834355400521C79
:10063000D2B22B5382700C2A04D3084A11700022C4
:100640008270C1700170022000F00AF870BD0000D5
:100650000800002000000020B00000200900002059
:10066000C10001D5024900E002494860704700001E
:1006700000040240000002400029016802D001226B
:10068000114301E0014A114001607047FEFF000084
:10069000F0B501682B4A1140016000210160416002
:1006A0008160C1602849284B08390F22984201D146
:1006B000486823E0244CF0231434A04229D0224D72
:1006C0001C012835A8422BD01F4E1D023C36B042DB
:1006D0002DD01D4F1E035037B8422FD01A4F64370C
:1006E000B84204D148681A0408E04860F0BD164FCB
:1006F0007837B84204D148680F2212061043F4E755
:100700001249124F0839B842D2D0104A14329042DE
:1007100002D148681843E8E70C4A2832904202D1D7
:1007200048682043E1E7094A3C32904202D14868D8
:100730002843DAE7054A50329042D7D1486830431F
:10074000D3E70000FEFF000008000240080402405A
:1007500001460020CA0001D5034A00E0034A12689E
:100760000A4200D00120704700040240000002400D
:10077000002A026801D00A4300E08A430260704701
:1007800030B503680C4A0C6A13408A684D692243ED
:100790000C692C4322438C692243CC6922434C6A66
:1007A00022438C6A22431A430260CA6842600A6884
:1007B00082604968C16030BD0F80FFFF0021016089
:1007C00041608160C160016141618161C16101621B
:1007D000416281627047000000F0E4FF01250926B4
:1007E0000027204C2D03F60600F00AF97F1C0A2F83
:1007F000FADB00F065FB7D27FF000EE000222946B2
:10080000304600F0F7F82169A069401AB84204D3D5
:10081000002060706061207002E060780028EDD1F7
:10082000E078274600280ED100F0AAFAF87100F00F
:10083000E7F8F879B979884201D1012000E0002079
:10084000387200F0E2FA787A0028D2D02946304691
:1008500000F0BCF802462946304600F0CBF8FFF71E
:1008600009FEC6E704000020401E00B20028FBDCA1
:10087000704700007CB523200121400400F026F9D8
:10088000684600F0ABF8E220009001266846067149
:100890000024847144710225C57109206946C0068F
:1008A00000F04CF80B480090684606718471447162
:1008B000C5716946084800F041F803200090684679
:1008C000067184714471C5716946044800F036F8B8
:1008D0007CBD0000FF010000000400480014004837
:1008E0007CB50121480400F0F1F8684600F076F884
:1008F00001200003009001206946087100248C71DA
:1009000009254C71ED06CC71284600F017F810202F
:10091000009069460C714C710220C871284600F0A5
:100920000DF80548009069460C714C71CC71284651
:1009300000F004F87CBD000008080000F0B50022BB
:10094000012423460D6893401D409D422AD10D7914
:10095000012D01D0022D12D1876855000326AE402B
:10096000B74387604E79AE4085682E4386608588A0
:100970009D43858085888B7993401D4385800668DB
:1009800055000323AB409E4306600E790768AE40D6
:100990003E430660C6689E43C660CB79AB40C568DF
:1009A0002B43C360521C102ACBD3F0BD4B07DB0E88
:1009B0009A40C90810B589000818016A0F249C40A4
:1009C000A1430162016A1143016210BD0246128A0D
:1009D00000200A4200D00120704700000449016055
:1009E00000210171012242718171C17170470000C3
:1009F000FFFF0000002A01D0816170470185704728
:100A000010B5104C606A401C6062012804D8A078C0
:100A100000F0C0F92064E063A07800F0BBF9206426
:100A2000E16B411849086164E063E069814201D3E8
:100A3000012004E0226A801A884201D30020A071BC
:100A400010BD000004000020FEE7704730B5837839
:100A500001210278002B15D094080E4BA400E41855
:100A600023689207D50EFF22AA409343427892074B
:100A7000120EAA401A4322600078C006C00E8140C0
:100A8000054804E0D006C00E814003488030016074
:100A900030BD000000E400E000E100E0704700002D
:100AA00009494A6801239B039A434A604A6883B212
:100AB0001A434A600A6B8B159A430A630A6B000C4F
:100AC00002430A637047000000100240044A0029F4
:100AD000516901D0014300E081435161704700003A
:100AE00000100240044A0029D16901D0014300E00E
:100AF0008143D1617047000000100240044A002980
:100B0000116901D0014300E0814311617047000089
:100B100000100240044A0029916901D0014300E01D
:100B2000814391617047000000100240044A00298F
:100B3000D16801D0014300E08143D16070470000DB
:100B40000010024010B50121C904002000F000F996
:100B5000012000F0EFF801200006FFF7A1FF1920A7
:100B600000F0C6F80028FAD0022000F0FFF800F0EC
:100B7000D9F80828FBD110BDF8B5564D0446686871
:100B800000210C22544E104005D0042803D0082820
:100B900003D00C281AD026601AE06968686803221E
:100BA0008902D2030F0F1040BF1C00280AD0E86A48
:100BB0000107090F3046491CFFF7B0FA7843014698
:100BC000216005E0454839464143F9E74448206043
:100BD0006868444F0006000F3B5C20680246DA401C
:100BE00062606B685B055B0FFB5CDA40A2602B6B9D
:100BF000DB0501D43C4B05E06B685B0401D4530872
:100C000000E09308E3602B6B5F06384B03D4374F4B
:100C10001237276100E023612F6BFF0601D4666164
:100C200000E060612F6BBF070ED02F6BBF07BF0FB7
:100C3000012F0BD02F6BBF07BF0F022F08D02F6BD8
:100C4000FF43BF0706D006E0A26104E0A06102E016
:100C5000A36100E0A6612F6BBF03BF0F0FD02F6B06
:100C6000BF03BF0F012F0CD02F6BBF03BF0F022F8D
:100C700009D02F6BBF03BF0F032F06D006E0E26140
:100C800004E0E06102E0E36100E0E6612F6B3F0316
:100C9000BF0F0FD02A6B1203920F012A0CD0286BC2
:100CA0000003800F022809D0286B0003800F03285F
:100CB00006D006E0226204E0206202E0236200E047
:100CC0002662286B000602D405486062F8BD6162A6
:100CD000F8BD00000010024000127A0000093D003B
:100CE000006CDC029E000020809FD5000080000088
:100CF000034600200A495A090CD0012A0CD0022AC6
:100D00000CD0496BDA06D20E012393400B4200D07F
:100D1000012070470968F5E7096AF3E7496AF1E7D6
:100D200000100240024840680C2108407047000053
:100D3000001002400122054912060028086801D06F
:100D4000104300E09043086070470000001002402C
:100D500010B5054A53687B24E403A34353605368EA
:100D600008430343536010BD00100240034A51681A
:100D7000890889000143516070470000001002405B
:100D800010B509200821C006FFF720FE012800D079
:100D9000002010BD10B5184C002804D0012808D040
:100DA000022812D11EE00521204600F0F3FA0021AE
:100DB00004E00021204600F0EDFA0521204600F075
:100DC000EBFA0021204600F0E9FA0C480C490278C1
:100DD000002A05D00B4B00229A5ECA6000220270E6
:100DE000C86810BD0021204600F0D4FA002120463A
:100DF00000F0D2FA0521E5E7002C014000000020B8
:100E000004000020B000002070470121092310B524
:100E10000903DB06012804D000221846FFF7EAFD8B
:100E200010BD0122F9E700001CB500212248019104
:100E30000091026801231B041A4302605B00052233
:100E4000120304681C400094019C641C0194009CE3
:100E5000002C02D1019C9442F3D10268920328D560
:100E600001210091154A11211160416841604168DA
:100E7000416041687F22D203914341604168112261
:100E800012041143416001680122120611430160FE
:100E900001688901FCD54168890889004160416881
:100EA00002221143416041680907890F0229FAD1E2
:100EB0001CBD00911CBD000000100240002002403B
:100EC00070B50F4C09262078F606012501280AD0B6
:100ED000E9023046FFF77AFD002803D00020207099
:100EE000607070BD257060690528FAD301216570B6
:100EF000002209033046FFF77DFDA069206170BD27
:100F0000040000207047000010B514480168012259
:100F1000114301604168124A114041600168114A61
:100F2000114001600168012292049143016041680F
:100F30003F22120491434160C16A09090901C1625B
:100F4000016BFF22543291430163416B4908490010
:100F5000416300218160FFF767FF10BD0010024070
:100F60000CB8FF08FFFFF6FE10B5204C012120460B
:100F700000F0FEF8002837D01D4801781D480029F0
:100F800001D00178491C01701B480078002827D047
:100F90001A484178491CC9B24170012904D002297C
:100FA00008D0032910D01BE00521204600F0F2F9FB
:100FB000002104E00021204600F0ECF90521204644
:100FC00000F0EAF9002108E00021204600F0E2F9F3
:100FD0000021204600F0E0F90521204600F0DEF96E
:100FE0000121204600F045F810BD0000002C014012
:100FF000040000201800002008000020000000204D
:1010000010B501218C07204600F0B2F8002803D06B
:101010000121204600F02DF810BD000010B50D4C48
:101020000121204600F0A4F8002812D00A490888BF
:10103000401C82B209480A8003685B1C0360142AC2
:1010400003D30020088000F0CBFB0121204600F0F4
:1010500010F810BD000400409C0000201C0000207F
:1010600080220029018801D0114300E091430180D2
:101070007047C943018270470029018802D00122CC
:10108000114301E0490849000180704740300029C0
:10109000818803D00122D203114301E04904490CA5
:1010A000818070472A4910B5884202D10121C414B9
:1010B0003AE001218907884206D101210846FFF75D
:1010C0001DFD0021012008E02249884208D10121AC
:1010D0000220FFF713FD00210220FFF70FFD10BDD6
:1010E0001D49884206D101211020FFF707FD00218C
:1010F0001020F2E71949884206D101212020FFF78C
:10110000FDFC00212020E8E71549884207D184151D
:1011100001212046FFF7F2FC00212046DDE71149BE
:10112000884209D101210C042046FFF7FFFC002171
:101130002046FFF7FBFC10BD0B49884202D101217C
:101140004C04F1E709498842F5D101218C04EBE711
:10115000002C01400004004000100040001400403A
:101160000020004000400140004401400048014090
:101170000246138A002092890B400A40002B02D0BD
:10118000002A00D001207047002A828901D00A433A
:1011900000E08A438281704730B5028C52085200C9
:1011A0000284038C8288048B7025AC43A4080D88CC
:1011B000A40025430224A3438C891C434B8823436A
:1011C0000F4CA04208D00F4CA04205D00E4CA042BC
:1011D00002D00E4CA0420DD10824A343CC891C435D
:1011E00004239C438B882343094C22400C8A1443DC
:1011F0004A8A22438280058389684163038430BD23
:10120000002C0140004001400044014000480140E2
:10121000FFFC0000028B08239A430A4302837047B5
:1012200070B5028C10239A430284048C8288038B4D
:101230001A4D2B400D782D062D0C1D4320239C4369
:101240008B891B051E0C4B8826431B051B0C144C5D
:101250003343A04202D0134EB04219D1124E324055
:101260000E8AB604360C3243A04211D18024A34327
:10127000CC892405240C1C4340239C438B881B05EC
:101280001B0C2343094C22404C8AA404240C224307
:101290008280058389688163038470BDFF8C0000B0
:1012A000002C014000400140FFFB0000FFF7000060
:1012B000028B034B09021A4011430183704700005F
:1012C000FFF7000030B5028C1A4B1A400284038CE1
:1012D0008288848B7025AC43A4080D88A400254324
:1012E000154C23400C7B2406240C1C438B781B06D6
:1012F0001B0C2343114CA04215D1114C23408C7B75
:101300002406240C1C430F4B1C400B791B061B0CA2
:1013100023430D4C22400C8A2405240C14434A8A92
:101320001205120C2243828085838968C16303847D
:1013300030BD0000FFFE0000FFFD0000002C01405A
:10134000FFF70000FFFB0000FFCF0000828B0823A7
:101350009A430A4382837047028970239A430A435F
:1013600002817047028980239A43028102890A43DD
:1013700002817047828870239A43828082880A4360
:10138000828070470289D208D200028102890A4312
:10139000028170474163704781637047C163704742
:1013A00010B50288144B984206D00124A407A0422D
:1013B00002D0124CA04203D17024A2434C88224395
:1013C0000F4CA04203D00F4C22400C8922430280D4
:1013D0004A68C2620A880285984208D00A4A904246
:1013E00005D00A4A904202D0094A904201D1897A36
:1013F00001860121818210BD002C014000040040C3
:1014000000100040FFFC000000400140004401408B
:10141000004801400021C943416000210180018151
:1014200041808172704702E008C8121F08C1002A7B
:10143000FAD170477047002001E001C1121F002A55
:10144000FBD1704730B5012187B04802FFF762FB3E
:101450001C4C2046FEF7AAFF6846FFF702F8002161
:101460006846017180200390C000009104910591AD
:10147000029069462046FEF7CFFF01212046FEF785
:10148000E1FF032201212046FEF770FF2046FEF710
:101490009DFF01212046FEF76EFF0B4D2046294699
:1014A000FEF7ABFF0028F9D001212046FEF76CFFC4
:1014B00002212046FEF772FF2046FEF7CDFF07B05F
:1014C00030BD0000002401400100000170B5012181
:1014D0008CB00846FFF7FAFA092168460170012529
:1014E000857000244470FFF7B1FA154E3046FFF7BF
:1014F000CFF801A8FFF762F9124802900394A802FE
:1015000008900B94802006900495202009900E48A6
:10151000019080150790059440010A9001A930467A
:10152000FFF72EF9012202213046FFF721F90220B0
:10153000FFF796F801213046FFF79EF80CB070BD1A
:1015400008000240B0000020402401401CB50121E9
:101550004804FFF7BBFA6846FFF740FA0120032270
:10156000694600900A7100228A714A71C871092087
:10157000C006FFF7E3F91CBDF0B58BB001210220D6
:10158000FFF7B0FA0121C802FFF7C4FA01210846AB
:10159000FFF7A8FA01214804FFF798FA04A8FFF71B
:1015A0001DFA71480490022669460E7500244C7598
:1015B0000925CC75ED0604A92846FFF7BFF90222DC
:1015C00011462846FFF7F2F9022208212846FFF7C4
:1015D000EDF9022209212846FFF7E8F902220A2143
:1015E0002846FFF7E3F90D206946087301258D733E
:1015F0004E7303A8FFF72AFA0F2669460E738D7300
:101600004C7303A8FFF722FA1020694608738D7304
:101610000420487303A8FFF719FA544F3846FFF720
:1016200041FD6846FFF7F6FE69460C817D204C803F
:10163000000101900E808C723846FFF7B1FE012246
:1016400011463846FFF7A0FD01213846FFF714FD8B
:10165000A807FFF727FD6846FFF7DCFE69464C80C8
:101660007826072701960F808C72A807FFF798FE4F
:101670006020694608834D830C2008908C8406A95D
:10168000A807FFF71FFE0821C806FFF75FFE01212C
:101690008807FFF7E5FC012211469007FFF774FD6C
:1016A00020214806FFF766FE0021A807FFF754FE39
:1016B00005218807FFF766FE8021C805FFF752FE67
:1016C00001218807FFF7D8FC69460F804C800196FE
:1016D000274E8C723046FFF763FE60206946088310
:1016E0004D838C838C840820C884400108854C85F8
:1016F000032406A930460894FFF74EFD0821304622
:10170000FFF788FD06A930460894FFF789FD0821F8
:101710003046FFF7CDFD06A930460894FFF7D2FD0D
:1017200008213046FFF712FE012211463046FFF72E
:101730002BFD01213046FFF793FC10213046FFF7C7
:1017400019FE01213046FFF794FC80213046FFF757
:1017500009FE01213046FFF799FC01213046FFF7D1
:101760008BFC0BB0F0BD000004070000000400403B
:10177000002C014010B5FFF7E5F9FFF7B1F800F0D4
:101780004BF80648FFF7F8F90548401E00B200285C
:10179000FBDCFFF721F8002010BD0000BC0000209A
:1017A000881300000C4801680C480A0F0F23120729
:1017B0001B07C165D21807D0D21804D05B00DA42EB
:1017C00003D1022200E00122827050220902090A9C
:1017D0000262C16170470000007000080400002030
:1017E00010B509201021C006FFF7F0F809490128BB
:1017F00048890CD00022642806D80346333B312B9D
:1018000002D3C31E2F2B01D248724A8110BD401C47
:10181000488110BD0400002010B5FFF797FEFFF7C8
:1018200011FEFFF753FEFFF7A7FEFFF723F810BDE9
:101830005018000800000020B00000002614000826
:1018400000190008B00000208004000036140008D1
:101850000000000000000000000000000000000088
:101860000000000000000000000000000000000078
:101870006400000050000000000000003200001270
:101880000000000000000000000000000000000058
:101890000000000000000000000000000000000048
:1018A0000000000000000000000000000000000038
:1018B0000000000000000000000000000000000028
:1018C0000000000000000000000000000000000018
:1018D0000000000000000000000000000000000008
:1018E00000000000000000000000000000000000F8
:1018F00000000102030401020304060708090000B6
:04000005080000B13E
:00000001FF
